:020000040000FA
:03000000000004F9
:03000100000AA64C
:03000200002A6F62
:03000300005F2E6D
:0300040000A8B59C
:030005000106D61B
:0300060001796419
:03000700020031C3
:03000800029B1246
:030009000349DBCD
:03000A00040C6182
:03000B0004E27894
:03000C0005CBF72A
:03000D0006C8B46E
:03000E0007D8858B
:03000F0008FB43A8
:030010000A30C4EF
:030011000B78E188
:030012000CD37399
:030013000E405349
:030014000FBF5AC1
:0300150001506334
:0300160002F348AA
:0300170004A7E457
:03001800066E125F
:030019000845AFE8
:03001A000A2E9516
:03001B000C28A30B
:03001C000E33B4EC
:03001D00004FA7EA
:03001E00027C5809
:03001F0004B9A77A
:030020000707725D
:03002100096597D7
:030022000BD3F706
:030023000E526F0B
:0300240000E0E217
:03002500037F2E28
:03002600062D356F
:0300270008EAD80C
:030028000BB7F71C
:030029000E9476BC
:03002A000180351D
:03002B00047B173C
:03002C000784FF47
:03002D000A9DD059
:03002E000DC56D90
:03002F0000FBBA19
:0300300004409AEF
:030031000793F240
:030032000AF5A725
:030033000E659CBB
:0300340001E3B82D
:03003500056FDF75
:030036000909F7BE
:030037000CB1E623
:03003800006793CB
:03003900042AE3B3
:03003A0007FBBD04
:03003B000BDA09D4
:03003C000FC5AD40
:03003D0003BE916E
:03003E0007C49D57
:03003F000BD7B824
:030040000FF7CBEC
:030041000424BFD5
:03004200085E7BDA
:030043000CA4EA20
:0300440000F7F3CF
:03004500055781DB
:0300460009C37C6F
:030047000E3BD09D
:0300480002C0658E
:0300490007512636
:03004A000BEDFEBD
:03004B000096D745
:03004C00054B9CC5
:03004D000A0C3862
:03004E000ED89732
:03004F0003B0A457
:0300500008944AC7
:030051000D8375A7
:03005200027E1318
:0300530007840E11
:030054000C9553B5
:0300550001B1CF27
:0300560006D96F59
:030057000C0C1F6F
:030058000149CE8D
:03005900069268A4
:03005A000BE5DAD9
:03005B000144134A
:03005C0006AD00EE
:03005D000C2090E4
:03005E00019EB050
:03005F0007274F21
:030060000CBA5C7B
:030061000257C57E
:0300620007FF791C
:030063000DB16775
:03006400036D7EAB
:030065000933ADAF
:030066000F03E5A0
:0300670004DE14A0
:030068000AC22A9F
:0300690000B018CC
:03006A0006A7CD19
:03006B000CA93AA3
:03006C0002B44E8D
:03006D0008C8FBC5
:03006E000EE7306A
:03006F00050EE09B
:030070000B3FF94A
:03007100017A6FA2
:0300720007BE3195
:030073000E0B3140
:03007400046160C4
:030075000AC0B00E
:030076000129134A
:03007700079A7A6B
:030078000E14D88B
:0300790004981ECA
:03007A000B243E16
:03007B0001B92B9D
:03007C000856D74C
:03007D000EFD3441
:03007E0005AC3698
:03007F000C63CE41
:030080000323F166
:0300810009EC90F7
:0300820000BD9E20
:03008300079710CC
:030084000E78D81B
:030085000562E928
:030086000C5538DE
:03008700034FB76D
:030088000A525ABF
:03008900015D1600
:03008A00086FDE1E
:03008B000F8AA534
:03008C0006AD615D
:03008D000DD80586
:03008E00050A86DA
:03008F000C44D747
:030090000386EEF6
:030091000AD0BFD3
:0300920002223F08
:03009300097B6284
:0300940000DC1E6F
:03009500084467B5
:030096000FB43272
:03009700072B74C0
:030098000EAA238A
:03009900063034FA
:03009A000DBD9CFD
:03009B00055250BB
:03009C000CEE4720
:03009D0004917655
:03009E000C3BD246
:03009F0003ED511D
:0300A0000BA5EAC3
:0300A10003659262
:0300A2000B2C3FE5
:0300A30002F9E778
:0300A4000ACE8001
:0300A50002AA02AA
:0300A6000A8C6160
:0300A7000275944B
:0300A8000A659353
:0300A900025C52A4
:0300AA000A59CA26
:0300AB00025DF102
:0300AC000A68BD22
:0300AD00027A25AF
:0300AE000A922093
:0300AF0002B0A6F6
:0300B0000AD5ADC1
:0300B10003012C1C
:0300B2000B331BF2
:0300B300036B706C
:0300B4000BAA2371
:0300B50003EF2C2A
:0300B6000C3A827F
:0300B700048C1C9A
:0300B8000CE3F264
:0300B9000541FB03
:0300BA000DA63060
:0300BB00061087A5
:0300BC000E80FAB9
:0300BD0006F77FC4
:0300BE000F740EAE
:0300BF0007F6A0A1
:0300C000007F2D91
:0300C100090DAC7A
:0300C20001A21682
:0300C3000A3C6391
:0300C40002DC8BD0
:0300C5000B828823
:0300C600042E50B5
:0300C7000CDFDC6F
:0300C80005972673
:0300C9000E5425AD
:0300CA000716D244
:0300CB000FDF261E
:0300CC0008AD1A62
:0300CD000180A50A
:0300CE000A59C20A
:0300CF000338698A
:0300D0000C1C9273
:0300D100050637EA
:0300D2000DF551D8
:0300D30006E9D962
:0300D4000FE3C770
:0300D50008E31627
:0300D60001E7BE81
:0300D7000AF1B873
:0300D8000400FE23
:0300D9000D158A78
:0300DA00062F549A
:0300DB000F4E566F
:0300DC000872891E
:0300DD00019BE79D
:0300DE000ACA6AE1
:0300DF0003FE0B12
:0300E0000D36C416
:0300E10006748F13
:0300E2000FB764F1
:0300E30008FF3FD4
:0300E400024C18B3
:0300E5000B9DEA86
:0300E60004F4AF70
:0300E7000E506157
:0300E80007B0F965
:0300E9000116718C
:0300EA000A80C4C5
:0300EB0003EFEC34
:0300EC000D63E3BE
:0300ED0006DCA38B
:0300EE00005A268F
:0300EF0009DC67C2
:0300F00003636047
:0300F1000CEF0B06
:0300F200067F6323
:0300F30000146195
:0300F40009AE0250
:0300F500034C3E7B
:0300F6000CEF10FC
:0300F700069674F6
:0300F80000426360
:0300F90009F2D930
:0300FA0003A7CF8A
:0300FB000D614153
:0300FC00071F2AB1
:0300FD0000E1839C
:0300FE000AA84904
:0300FF0004737512
:030100000E4303A8
:0301010004777010
:030102000AB81E1A
:030103000104F400
:03010400075DD7BD
:030105000DC2AE7A
:0301060004335F60
:030107000AAFD06C
:030108000137EAD2
:0301090007CB928F
:03010A000E6AB2C8
:03010B00051531A6
:03010C000BCAF724
:03010D00028BED75
:03010E000957FB93
:03010F00002F0CB2
:03011000071107CD
:030111000DFDD70A
:0301120004F5668B
:030113000BF79D4A
:0301140003046879
:030115000A1BB012
:03011600013D6147
:030117000869650F
:030118000F9FA98D
:0301190006E017E6
:03011A000E2A9B0F
:03011B00057F223B
:03011C000CDD985F
:03011D000445E8AE
:03011E000BB8011A
:03011F000333CDDA
:030120000AB93CDD
:0301210002483A57
:0301220009E0B43D
:03012300018299BD
:03012400092DD5CD
:0301250000E2589D
:0301260008A00F1F
:030127000066EA85
:030128000836D6C0
:03012900000FC202
:03012A0007F19E3C
:03012B000FDC598D
:03012C0007CFE218
:03012D000FCC28CC
:03012E0007D11CDA
:03012F000FDEAE32
:0301300007F4CC05
:030131000013694F
:03013200083A7315
:030133000069DC84
:0301340008A1948B
:0301350000E18C5A
:030136000929B5DF
:03013700017A0149
:0301380009D26089
:030139000232C4CB
:03013A000A9B1FFE
:03013B00030B6350
:03013C000B8380B2
:03013D0004036B4D
:03013E000C8B1413
:03013F00051A6E30
:030140000DB16B93
:03014100064FFE68
:030142000EF61A9C
:0301430007A3B15E
:030144000058B7A9
:0301450009151E7B
:0301460001D8DB02
:030147000AA3DF29
:0301480003761F1C
:030149000C4F8FC9
:03014A000530215C
:03014B000E17CAC2
:03014C0007067E25
:03014D000FFC3173
:03014E0008F8D6D8
:03014F0001FC634D
:030150000B06CBD0
:030151000418048B
:030152000D30016C
:03015300064EB89D
:030154000F741D08
:0301550008A026D9
:0301560001D2C60D
:030157000B0BF49B
:03015800044BA5B0
:030159000D91CD38
:03015A0006DE635B
:03015B0000315C14
:03015C00098AAD60
:03015D0002EA4C67
:03015E000C503012
:03015F0005BC4D8F
:030160000F2E9AC5
:0301610008A70DDF
:0301620002259DD6
:030163000BAA3EA6
:030164000534E976
:030165000EC59232
:03016600085C3101
:0301670001F8BDDF
:030168000B9B2BC3
:03016900054373D8
:03016A000EF18C07
:03016B0008A56C78
:03016C00025F0A25
:03016D000C1E5E07
:03016E0005E35F47
:03016F000FAE03CD
:03017000097E43C2
:030171000354161E
:030172000D2F72DC
:0301730007105022
:0301740000F6A7EB
:030175000AE26F2C
:0301760004D3A00F
:030177000ECA317C
:0301780008C61A9C
:0301790002C75367
:03017A000CCDD5D4
:03017B0006D9970B
:03017C0000EA9105
:03017D000B00BDB7
:03017E00051C114C
:03017F000F3C86AC
:03018000096215FC
:03018100038CB636
:030182000DBC624F
:0301830007F1126F
:03018400022ABD8F
:030185000C695DA5
:0301860006ACEADA
:0301870000F55E22
:030188000B42B176
:030189000594DCFE
:03018A000FEBD8A0
:03018B000A479E82
:03018C0004A8289C
:03018D000F0D6EE5
:03018E0009776985
:03018F0003E61470
:030190000E59679E
:0301910008D15B37
:03019200034DEB2F
:030193000DCF0F7E
:030194000854C24A
:0301950002DEFC8B
:030196000D6DB735
:030197000800EE6F
:0301980002989931
:030199000D34B36F
:03019A0007D53551
:03019B00027A1ACB
:03019C000D235BD5
:03019D0007D0F296
:03019E000282DA00
:03019F000D390B0C
:0301A00007F382E0
:0301A10002B23671
:0301A2000D7524B4
:0301A300083C45D0
:0301A400030793BB
:0301A5000DD7086B
:0301A60008AAA004
:0301A7000382547C
:0301A8000E5E1FC9
:0301A900093DFC11
:0301AA000421E449
:0301AB000F09D366
:0301AC0009F5C48E
:0301AD0004E5B0B6
:0301AE000FD992D4
:0301AF000AD1660C
:0301B00005CD2753
:0301B10000CCCEB1
:0301B2000BD05718
:0301B30006D7BCB0
:0301B40001E2F96C
:0301B5000CF20940
:0301B6000804E654
:0301B700031B8C9B
:0301B8000E35F60B
:0301B90009541EC8
:0301BA00047601C7
:0301BB000F9B98FF
:0301BC000AC4E092
:0301BD0005F1D475
:0301BE0001226FAC
:0301BF000C56AC2F
:0301C000078E8621
:0301C10002C9FA76
:0301C2000E090221
:0301C300094B994C
:0301C4000491BCE7
:0301C5000FDB66E7
:0301C6000B289370
:0301C70006793D79
:0301C80001CD6105
:0301C9000D24FB07
:0301CA00088005A5
:0301CB0003DE7CD4
:0301CC000F405B86
:0301CD000AA59FE1
:0301CE00060E42D8
:0301CF00017A4171
:0301D0000CE9989F
:0301D100085C4285
:0301D20003D23B1A
:0301D3000F4B804F
:0301D4000AC80C4A
:0301D5000647DBFF
:0301D60001CAEA71
:0301D7000D513493
:0301D80008DAB58D
:0301D90004676A4E
:0301DA000FF74ECE
:0301DB000B8A5E2E
:0301DC0007209663
:0301DD0002B9F272
:0301DE000E566F4B
:0301DF0009F60816
:0301E0000598BAC5
:0301E100013E815B
:0301E2000CE759CE
:0301E3000893403E
:0301E400044230A2
:0301E5000FF428EC
:0301E6000BA92240
:0301E70007611C91
:0301E800031C12E3
:0301E9000EDA002B
:0301EA000A9AE38B
:0301EB00065EB8F5
:0301EC0002257B6E
:0301ED000DEF28EB
:0301EE0009BBBC8E
:0301EF00058B3548
:0301F000015D8E20
:0301F1000D32C408
:0301F200090AD423
:0301F30004E5BB65
:0301F40000C375D0
:0301F5000CA3FE5A
:0301F60008875522
:0301F700046D761E
:0301F80000565D51
:0301F9000C4207AE
:0301FA0008307159
:0301FB0004219844
:0301FC0000157A71
:0301FD000C0C12D5
:0301FE0008055D94
:0301FF0004015A9E
:00000001ff
