:020000040000FA
:020000000200FC
:0200010001FFFD
:0200020001FEFD
:0200030001FDFD
:0200040001FCFD
:0200050001FBFD
:0200060001FAFD
:0200070001F9FD
:0200080001F8FD
:0200090001F7FD
:02000A0001F6FD
:02000B0001F5FD
:02000C0001F4FD
:02000D0001F3FD
:02000E0001F2FD
:02000F0001F1FD
:0200100001F0FD
:0200110001EFFD
:0200120001EEFD
:0200130001EDFD
:0200140001ECFD
:0200150001ECFC
:0200160001EBFC
:0200170001EAFC
:0200180001E9FC
:0200190001E8FC
:02001A0001E7FC
:02001B0001E6FC
:02001C0001E5FC
:02001D0001E5FB
:02001E0001E4FB
:02001F0001E3FB
:0200200001E2FB
:0200210001E1FB
:0200220001E0FB
:0200230001DFFB
:0200240001DFFA
:0200250001DEFA
:0200260001DDFA
:0200270001DCFA
:0200280001DBFA
:0200290001DAFA
:02002A0001DAF9
:02002B0001D9F9
:02002C0001D8F9
:02002D0001D7F9
:02002E0001D6F9
:02002F0001D6F8
:0200300001D5F8
:0200310001D4F8
:0200320001D3F8
:0200330001D2F8
:0200340001D2F7
:0200350001D1F7
:0200360001D0F7
:0200370001CFF7
:0200380001CFF6
:0200390001CEF6
:02003A0001CDF6
:02003B0001CCF6
:02003C0001CBF6
:02003D0001CBF5
:02003E0001CAF5
:02003F0001C9F5
:0200400001C8F5
:0200410001C8F4
:0200420001C7F4
:0200430001C6F4
:0200440001C6F3
:0200450001C5F3
:0200460001C4F3
:0200470001C3F3
:0200480001C3F2
:0200490001C2F2
:02004A0001C1F2
:02004B0001C1F1
:02004C0001C0F1
:02004D0001BFF1
:02004E0001BEF1
:02004F0001BEF0
:0200500001BDF0
:0200510001BCF0
:0200520001BCEF
:0200530001BBEF
:0200540001BAEF
:0200550001BAEE
:0200560001B9EE
:0200570001B8EE
:0200580001B8ED
:0200590001B7ED
:02005A0001B6ED
:02005B0001B6EC
:02005C0001B5EC
:02005D0001B4EC
:02005E0001B4EB
:02005F0001B3EB
:0200600001B2EB
:0200610001B2EA
:0200620001B1EA
:0200630001B0EA
:0200640001B0E9
:0200650001AFE9
:0200660001AEE9
:0200670001AEE8
:0200680001ADE8
:0200690001ADE7
:02006A0001ACE7
:02006B0001ABE7
:02006C0001ABE6
:02006D0001AAE6
:02006E0001A9E6
:02006F0001A9E5
:0200700001A8E5
:0200710001A8E4
:0200720001A7E4
:0200730001A6E4
:0200740001A6E3
:0200750001A5E3
:0200760001A5E2
:0200770001A4E2
:0200780001A3E2
:0200790001A3E1
:02007A0001A2E1
:02007B0001A2E0
:02007C0001A1E0
:02007D0001A0E0
:02007E0001A0DF
:02007F00019FDF
:02008000019FDE
:02008100019EDE
:02008200019EDD
:02008300019DDD
:02008400019CDD
:02008500019CDC
:02008600019BDC
:02008700019BDB
:02008800019ADB
:02008900019ADA
:02008A000199DA
:02008B000198DA
:02008C000198D9
:02008D000197D9
:02008E000197D8
:02008F000196D8
:020090000196D7
:020091000195D7
:020092000195D6
:020093000194D6
:020094000194D5
:020095000193D5
:020096000192D5
:020097000192D4
:020098000191D4
:020099000191D3
:02009A000190D3
:02009B000190D2
:02009C00018FD2
:02009D00018FD1
:02009E00018ED1
:02009F00018ED0
:0200A000018DD0
:0200A100018DCF
:0200A200018CCF
:0200A300018CCE
:0200A400018BCE
:0200A500018BCD
:0200A600018ACD
:0200A700018ACC
:0200A8000189CC
:0200A9000189CB
:0200AA000188CB
:0200AB000188CA
:0200AC000187CA
:0200AD000187C9
:0200AE000186C9
:0200AF000186C8
:0200B0000185C8
:0200B1000185C7
:0200B2000184C7
:0200B3000184C6
:0200B4000183C6
:0200B5000183C5
:0200B6000182C5
:0200B7000182C4
:0200B8000181C4
:0200B9000181C3
:0200BA000180C3
:0200BB000180C2
:0200BC00017FC2
:0200BD00017FC1
:0200BE00017EC1
:0200BF00017EC0
:0200C000017EBF
:0200C100017DBF
:0200C200017DBE
:0200C300017CBE
:0200C400017CBD
:0200C500017BBD
:0200C600017BBC
:0200C700017ABC
:0200C800017ABB
:0200C9000179BB
:0200CA000179BA
:0200CB000178BA
:0200CC000178B9
:0200CD000178B8
:0200CE000177B8
:0200CF000177B7
:0200D0000176B7
:0200D1000176B6
:0200D2000175B6
:0200D3000175B5
:0200D4000174B5
:0200D5000174B4
:0200D6000174B3
:0200D7000173B3
:0200D8000173B2
:0200D9000172B2
:0200DA000172B1
:0200DB000171B1
:0200DC000171B0
:0200DD000171AF
:0200DE000170AF
:0200DF000170AE
:0200E000016FAE
:0200E100016FAD
:0200E200016EAD
:0200E300016EAC
:0200E400016EAB
:0200E500016DAB
:0200E600016DAA
:0200E700016CAA
:0200E800016CA9
:0200E900016CA8
:0200EA00016BA8
:0200EB00016BA7
:0200EC00016AA7
:0200ED00016AA6
:0200EE00016AA5
:0200EF000169A5
:0200F0000169A4
:0200F1000168A4
:0200F2000168A3
:0200F3000168A2
:0200F4000167A2
:0200F5000167A1
:0200F6000166A1
:0200F7000166A0
:0200F80001669F
:0200F90001659F
:0200FA0001659E
:0200FB0001649E
:0200FC0001649D
:0200FD0001649C
:0200FE0001639C
:0200FF0001639B
:0201000001629A
:02010100016299
:02010200016199
:02010300016198
:02010400016098
:02010500015F98
:02010600015F97
:02010700015E97
:02010800015E96
:02010900015D96
:02010A00015C96
:02010B00015C95
:02010C00015B95
:02010D00015B94
:02010E00015A94
:02010F00015A93
:02011000015993
:02011100015893
:02011200015892
:02011300015792
:02011400015791
:02011500015691
:02011600015690
:02011700015590
:02011800015490
:0201190001548F
:02011A0001538F
:02011B0001538E
:02011C0001528E
:02011D0001528D
:02011E0001518D
:02011F0001518C
:0201200001508C
:0201210001508B
:02012200014F8B
:02012300014F8A
:02012400014E8A
:02012500014E89
:02012600014D89
:02012700014D88
:02012800014C88
:02012900014C87
:02012A00014B87
:02012B00014A87
:02012C00014A86
:02012D00014986
:02012E00014985
:02012F00014885
:02013000014884
:02013100014883
:02013200014783
:02013300014782
:02013400014682
:02013500014681
:02013600014581
:02013700014580
:02013800014480
:0201390001447F
:02013A0001437F
:02013B0001437E
:02013C0001427E
:02013D0001427D
:02013E0001417D
:02013F0001417C
:0201400001407C
:0201410001407B
:02014200013F7B
:02014300013F7A
:02014400013F79
:02014500013E79
:02014600013E78
:02014700013D78
:02014800013D77
:02014900013C77
:02014A00013C76
:02014B00013B76
:02014C00013B75
:02014D00013A75
:02014E00013A74
:02014F00013A73
:02015000013973
:02015100013972
:02015200013872
:02015300013871
:02015400013771
:02015500013770
:0201560001376F
:0201570001366F
:0201580001366E
:0201590001356E
:02015A0001356D
:02015B0001356C
:02015C0001346C
:02015D0001346B
:02015E0001336B
:02015F0001336A
:0201600001326A
:02016100013269
:02016200013268
:02016300013168
:02016400013167
:02016500013067
:02016600013066
:02016700013065
:02016800012F65
:02016900012F64
:02016A00012E64
:02016B00012E63
:02016C00012E62
:02016D00012D62
:02016E00012D61
:02016F00012C61
:02017000012C60
:02017100012C5F
:02017200012B5F
:02017300012B5E
:02017400012B5D
:02017500012A5D
:02017600012A5C
:0201770001295C
:0201780001295B
:0201790001295A
:02017A0001285A
:02017B00012859
:02017C00012858
:02017D00012758
:02017E00012757
:02017F00012657
:02018000012656
:02018100012655
:02018200012555
:02018300012554
:02018400012553
:02018500012453
:02018600012452
:02018700012451
:02018800012351
:02018900012350
:02018A00012250
:02018B0001224F
:02018C0001224E
:02018D0001214E
:02018E0001214D
:02018F0001214C
:0201900001204C
:0201910001204B
:0201920001204A
:02019300011F4A
:02019400011F49
:02019500011F48
:02019600011E48
:02019700011E47
:02019800011E46
:02019900011D46
:02019A00011D45
:02019B00011D44
:02019C00011C44
:02019D00011C43
:02019E00011C42
:02019F00011B42
:0201A000011B41
:0201A100011B40
:0201A200011A40
:0201A300011A3F
:0201A400011A3E
:0201A50001193E
:0201A60001193D
:0201A70001193C
:0201A80001183C
:0201A90001183B
:0201AA0001183A
:0201AB0001173A
:0201AC00011739
:0201AD00011738
:0201AE00011638
:0201AF00011637
:0201B000011636
:0201B100011635
:0201B200011535
:0201B300011534
:0201B400011533
:0201B500011433
:0201B600011432
:0201B700011431
:0201B800011331
:0201B900011330
:0201BA0001132F
:0201BB0001122F
:0201BC0001122E
:0201BD0001122D
:0201BE0001122C
:0201BF0001112C
:0201C00001112B
:0201C10001112A
:0201C20001102A
:0201C300011029
:0201C400011028
:0201C500010F28
:0201C600010F27
:0201C700010F26
:0201C800010F25
:0201C900010E25
:0201CA00010E24
:0201CB00010E23
:0201CC00010D23
:0201CD00010D22
:0201CE00010D21
:0201CF00010D20
:0201D000010C20
:0201D100010C1F
:0201D200010C1E
:0201D300010B1E
:0201D400010B1D
:0201D500010B1C
:0201D600010B1B
:0201D700010A1B
:0201D800010A1A
:0201D900010A19
:0201DA00010919
:0201DB00010918
:0201DC00010917
:0201DD00010916
:0201DE00010816
:0201DF00010815
:0201E000010814
:0201E100010813
:0201E200010713
:0201E300010712
:0201E400010711
:0201E500010611
:0201E600010610
:0201E70001060F
:0201E80001060E
:0201E90001050E
:0201EA0001050D
:0201EB0001050C
:0201EC0001050B
:0201ED0001040B
:0201EE0001040A
:0201EF00010409
:0201F000010408
:0201F100010308
:0201F200010307
:0201F300010306
:0201F400010305
:0201F500010205
:0201F600010204
:0201F700010203
:0201F800010202
:0201F900010102
:0201FA00010101
:0201FB00010100
:0201FC000101FF
:0201FD000100FF
:0201FE000100FE
:0201FF000100FD
:00000001ff
