:020000040000FA
:03000000000003FA
:03000100001544A3
:03000200002A5081
:03000300003F2E8D
:030004000053DFC7
:030005000068622E
:03000600007CB7C4
:030007000090E383
:0300080000A4E170
:0300090000B8B389
:03000A0000CC58CF
:03000B0000DFD63D
:03000C0000F327D7
:03000D0001064F9A
:03000E0001195283
:03000F00012C2998
:03001000013ED8D6
:0300110001516238
:030012000163C4C3
:030013000175FD77
:030014000188134D
:03001500019A014C
:0300160001ABCC6F
:0300170001BD6EBA
:0300180001CEF026
:0300190001E049BA
:03001A0001F1856C
:03001B0002029747
:03001C0002138C40
:03001D0002245A60
:03001E0002350A9E
:03001F0002459700
:0300200002560085
:0300210002664C28
:03002200027672F1
:0300230002867FD3
:03002400029667DA
:0300250002A632FE
:0300260002B5DD43
:0300270002C567A8
:0300280002D4D827
:0300290002E425C9
:03002A0002F35886
:03002B0003026E5F
:03002C0003116558
:03002D0003203F6E
:03002E00032EFDA1
:03002F00033D9EF0
:03003000034C245A
:03003100035A8EE1
:030032000368DB85
:0300330003770F41
:030034000385271A
:030035000393260C
:0300360003A10A19
:0300370003AED540
:0300380003BC8482
:0300390003CA1BDC
:03003A0003D79A4F
:03003B0003E4FEDD
:03003C0003F24B81
:03003D0003FF7F3F
:03003E00040C9817
:03003F0004199E03
:0300400004268C07
:0300410004335D28
:0300420004401D5A
:03004300044CC1A9
:030044000459520A
:030045000465C986
:0300460004722F12
:03004700047E7ABA
:03004800048AB176
:030049000496D446
:03004A0004A2DF2E
:03004B0004AED62A
:03004C0004BAB63D
:03004D0004C68561
:03004E0004D23B9E
:03004F0004DDDDF0
:0300500004E96D53
:0300510004F4EBC9
:0300520005004F57
:03005300050BA4F6
:030054000516E6A8
:030055000522136E
:03005600052D2C49
:0300570005383633
:0300580005432835
:03005900054E0A47
:03005A000558DB6B
:03005B00056399A1
:03005C00056E44EA
:03005D000578DD46
:03005E00058364B3
:03005F00058DDC30
:03006000059840C0
:0300610005A29263
:0300620005ACD416
:0300630005B705D9
:0300640005C126AD
:0300650005CB398F
:0300660005D53786
:0300670005DF278B
:0300680005E9099E
:0300690005F2D7C6
:03006A0005FC96FC
:03006B0006064442
:03006C00060FE597
:03006D00061973FE
:03006E000622F770
:03006F00062C66F6
:030070000635CC86
:03007100063F1E29
:03007200064863DA
:0300730006519B98
:03007400065AC366
:030075000663DF40
:03007600066CE92C
:030077000675E823
:03007800067ED52C
:030079000687B542
:03007A0006908964
:03007B0006994F94
:03007C0006A207D2
:03007D0006AAB31D
:03007E0006B34F77
:03007F0006BBE2DB
:0300800006C46350
:0300810006CCD8D2
:0300820006D5455B
:0300830006DDA0F7
:0300840006E5F09E
:0300850006EE3450
:0300860006F66912
:0300870006FE95DD
:030088000706B4B4
:03008900070EC49B
:03008A000716C98D
:03008B00071EC588
:03008C000726B391
:03008D00072E95A6
:03008E0007366BC7
:03008F00073E39F0
:030090000745F928
:03009100074DAD6B
:03009200075556B9
:03009300075CF413
:030094000764847A
:03009500076C0BEA
:0300960007738865
:03009700077AFBEA
:030098000782627A
:030099000789BD17
:03009A00079110BB
:03009B0007985A69
:03009C00079F9625
:03009D0007A6C7EC
:03009E0007ADF0BB
:03009F0007B51191
:0300A00007BC2377
:0300A10007C32C66
:0300A20007CA2C5E
:0300A30007D12260
:0300A40007D81169
:0300A50007DEF182
:0300A60007E5CC9F
:0300A70007EC9CC7
:0300A80007F35FFC
:0300A90007FA2033
:0300AA000800D279
:0300AB0008077AC9
:0300AC00080E1B20
:0300AD000814B381
:0300AE00081B45E7
:0300AF000821C95C
:0300B000082845D8
:0300B100082EB95D
:0300B200083524EA
:0300B300083B8681
:0300B4000841E31D
:0300B500084833C5
:0300B600084E7A77
:0300B7000854BA30
:0300B800085AF2F1
:0300B900086122B9
:0300BA000867488C
:0300BB00086D6865
:0300BC0008737C4A
:0300BD0008798B34
:0300BE00087F9325
:0300BF0008859120
:0300C000088B8624
:0300C1000891762D
:0300C20008975D3F
:0300C300089D3C59
:0300C40008A31579
:0300C50008A8E2A6
:0300C60008AEACD5
:0300C70008B46E0C
:0300C80008BA264D
:0300C90008BFD994
:0300CA0008C584E2
:0300CB0008CB2639
:0300CC0008D0C198
:0300CD0008D657FB
:0300CE0008DBE369
:0300CF0008E168DD
:0300D00008E6E956
:0300D10008EC61D7
:0300D20008F1D161
:0300D30008F73CEF
:0300D40008FCA184
:0300D5000901FC22
:0300D600090752C5
:0300D700090CA46D
:0300D8000911EC1F
:0300D90009172CD8
:0300DA00091C6797
:0300DB0009219C5C
:0300DC000926CA28
:0300DD00092BF5F7
:0300DE00093116CF
:0300DF00093631AE
:0300E000093B4495
:0300E10009405182
:0300E20009455A73
:0300E300094A5C6B
:0300E400094F5968
:0300E50009544F6C
:0300E60009593D78
:0300E700095E248B
:0300E800096309A0
:0300E9000967E8BC
:0300EA00096CC1DD
:0300EB0009719206
:0300EC0009765E34
:0300ED00097B2468
:0300EE00097FE6A1
:0300EF000984A0E1
:0300F00009895427
:0300F100098E0372
:0300F2000992ABC5
:0300F30009975218
:0300F400099BED78
:0300F50009A088D7
:0300F60009A51D3C
:0300F70009A9ABA9
:0300F80009AE341A
:0300F90009B2B792
:0300FA0009B7370C
:0300FB0009BBAF8F
:0300FC0009C02216
:0300FD0009C492A1
:0300FE0009C8FA34
:0300FF0009CD5FC9
:03010000062E4583
:03010100063A9229
:030102000646CBE3
:030103000652E3BE
:03010400065EE6AE
:03010500066ACABD
:03010600067696E4
:0301070006824C21
:03010800068DE57C
:0301090006996CE8
:03010A0006A4D672
:03010B0006B02813
:03010C0006BB64CB
:03010D0006C6879C
:03010E0006D19681
:03010F0006DC8B80
:0301100006E76C93
:0301110006F236BD
:0301120006FCE800
:0301130007078853
:0301140007120FC0
:03011500071C8341
:030116000726E0D9
:0301170007312B82
:03011800073B5E44
:0301190007457E19
:03011A00074F8DFF
:03011B00075984FD
:03011C0007636610
:03011D00076D3A31
:03011E000776F56C
:03011F000780A5B1
:03012000078A3C0F
:030121000793C081
:03012200079D3402
:0301230007A69498
:0301240007AFE53D
:0301250007B922F5
:0301260007C24EBF
:0301270007CB669D
:0301280007D47089
:0301290007DD6A85
:03012A0007E65194
:03012B0007EF26B5
:03012C0007F7EBE7
:03012D000800A423
:03012E0008094875
:03012F000811DADA
:03013000081A6248
:030131000822D5CC
:03013200082B3C5B
:03013300083392FC
:03013400083BDAAB
:0301350008441467
:03013600084C3E34
:0301370008545712
:03013800085C65FB
:03013900086464F3
:03013A00086C53FB
:03013B0008743213
:03013C00087C0933
:03013D000883CC68
:03013E00088B83A8
:03013F0008932DF5
:03014000089ACB4F
:0301410008A25AB7
:0301420008A9DC2D
:0301430008B152AE
:0301440008B8B93F
:0301450008C016D9
:0301460008C76384
:0301470008CEA738
:0301480008D5DBFC
:0301490008DD03CB
:03014A0008E421A5
:03014B0008EB328C
:03014C0008F23581
:03014D0008F92E80
:03014E0009001D88
:03014F000906FDA1
:03015000090DD5C1
:0301510009149DF1
:03015200091B5F27
:030153000922126C
:030154000928BBBC
:03015500092F5718
:030156000935EC7C
:03015700093C73ED
:030158000942EF6A
:03015900094963EE
:03015A00094FCA80
:03015B000956271B
:03015C00095C7CBF
:03015D000962C56F
:03015E000969022A
:03015F00096F39EC
:03016000097564BA
:03016100097B8592
:0301620009819A76
:030163000987A960
:03016400098DAC56
:030165000993A853
:030166000999995B
:03016700099F7F6E
:0301680009A55F87
:0301690009AB33AC
:03016A0009B0FEDB
:03016B0009B6C210
:03016C0009BC7D4E
:03016D0009C22E96
:03016E0009C7D4EA
:03016F0009CD7740
:0301700009D30CA4
:0301710009D89812
:0301720009DE2083
:0301730009E39D00
:0301740009E91284
:0301750009EE7E12
:0301760009F3E1A9
:0301770009F93D46
:0301780009FE93EA
:030179000A03E096
:03017A000A09244B
:03017B000A0E6108
:03017C000A1395CE
:03017D000A18BF9E
:03017E000A1DE671
:03017F000A23054B
:030180000A281A30
:030181000A2D2B19
:030182000A32310D
:030183000A372F09
:030184000A3C280A
:030185000A411814
:030186000A460422
:030187000A4AE53C
:030188000A4FC05B
:030189000A549580
:03018A000A5963AC
:03018B000A5E2ADF
:03018C000A62E71D
:03018D000A67A15D
:03018E000A6C55A3
:03018F000A70FFF4
:030190000A75A548
:030191000A7A44A3
:030192000A7EDC06
:030193000A836D6F
:030194000A87F6E1
:030195000A8C7C55
:030196000A90FBD1
:030197000A957254
:030198000A99E5DC
:030199000A9E4F6C
:03019A000AA2B7FF
:03019B000AA7169A
:03019C000AAB6F3C
:03019D000AAFC2E4
:03019E000AB40C94
:03019F000AB85744
:0301A0000ABC9501
:0301A1000AC0D4BD
:0301A2000AC50883
:0301A3000AC9374F
:0301A4000ACD621F
:0301A5000AD189F3
:0301A6000AD5A7D0
:0301A7000AD9C1B1
:0301A8000ADDD598
:0301A9000AE1E385
:0301AA000AE5EE75
:0301AB000AE9F16D
:0301AC000AEDEE6B
:0301AD000AF1E76D
:0301AE000AF5DF70
:0301AF000AF9CD7D
:0301B0000AFDB392
:0301B1000B0198A7
:0301B2000B0577C3
:0301B3000B0953E2
:0301B4000B0D2808
:0301B5000B10F834
:0301B6000B14C463
:0301B7000B188999
:0301B8000B1C4AD3
:0301B9000B200810
:0301BA000B23BD57
:0301BB000B27749B
:0301BC000B2B21E9
:0301BD000B2EC93D
:0301BE000B326C95
:0301BF000B360CF0
:0301C0000B39A850
:0301C1000B3D3DB6
:0301C2000B40D01F
:0301C3000B446189
:0301C4000B47EAFC
:0301C5000B4B6E73
:0301C6000B4EEDF0
:0301C7000B526A6E
:0301C8000B55E1F3
:0301C9000B59527D
:0301CA000B5CC209
:0301CB000B602C9A
:0301CC000B639230
:0301CD000B66F3CB
:0301CE000B6A5267
:0301CF000B6DAB0A
:0301D0000B70FFB2
:0301D1000B74525A
:0301D2000B77A008
:0301D3000B7AE9BB
:0301D4000B7E2F70
:0301D5000B81702B
:0301D6000B84ACEB
:0301D7000B87E5AE
:0301D8000B8B1B73
:0301D9000B8E4C3E
:0301DA000B917B0B
:0301DB000B94A5DD
:0301DC000B97CBB3
:0301DD000B9AED8D
:0301DE000B9E0A6B
:0301DF000BA1254C
:0301E0000BA43C31
:0301E1000BA75019
:0301E2000BAA6104
:0301E3000BAD6BF6
:0301E4000BB076E7
:0301E5000BB379E0
:0301E6000BB67BDA
:0301E7000BB978D9
:0301E8000BBC72DB
:0301E9000BBF6ADF
:0301EA000BC25DE8
:0301EB000BC54BF6
:0301EC000BC83706
:0301ED000BCB2118
:0301EE000BCE092C
:0301EF000BD0E949
:0301F0000BD3C866
:0301F1000BD6A486
:0301F2000BD97CAA
:0301F3000BDC4FD3
:0301F4000BDF20FE
:0301F5000BE1F328
:0301F6000BE4BD5A
:0301F7000BE78390
:0301F8000BEA47C8
:0301F9000BED0A01
:0301FA000BEFCA3E
:0301FB000BF2877D
:0301FC000BF53BC5
:0301FD000BF7F20B
:0301FE000BFAA653
:0301FF000BFD53A2
:00000001ff
