:0200000007FFF8
:0200010008668F
:0200020008CD27
:020003000934BE
:02000400099B56
:020005000A02ED
:020006000A6985
:020007000AD01D
:020008000B37B4
:020009000B9E4C
:02000A000C05E3
:02000B000C6B7C
:02000C000CD214
:02000D000D39AB
:02000E000DA043
:02000F000E06DB
:020010000E6D73
:020011000ED30C
:020012000F3AA3
:020013000FA03C
:020014000007E3
:02001500006D7C
:0200160000D414
:02001700013AAC
:0200180001A045
:020019000206DD
:02001A00026C76
:02001B0002D20F
:02001C000338A7
:02001D00039E40
:02001E000404D8
:02001F00046A71
:0200200004D00A
:020021000535A3
:02002200059B3C
:020023000600D5
:0200240006656F
:0200250006CA09
:020026000730A1
:0200270007953B
:0200280007FAD5
:02002900085E6F
:02002A0008C309
:02002B000928A2
:02002C00098C3D
:02002D0009F1D7
:02002E000A5571
:02002F000AB90C
:020030000B1DA6
:020031000B8141
:020032000BE5DC
:020033000C4877
:020034000CAC12
:020035000D0FAD
:020036000D7249
:020037000DD6E4
:020038000E397F
:020039000E9B1C
:02003A000EFEB8
:02003B000F6153
:02003C000FC3F0
:02003D0000259C
:02003E00008739
:02003F0000E9D6
:02004000014B72
:0200410001AC10
:02004200020EAC
:02004300026F4A
:0200440002D0E8
:02004500033185
:02004600039223
:0200470003F2C2
:0200480004535F
:0200490004B3FE
:02004A0005139C
:02004B0005733B
:02004C0005D2DB
:02004D00063279
:02004E00069119
:02004F0006F0B9
:02005000074F58
:0200510007ADF9
:02005200080C98
:02005300086A39
:0200540008C8DA
:0200550009267A
:0200560009831C
:0200570009E1BD
:020058000A3E5E
:020059000A9B00
:02005A000AF8A2
:02005B000B5444
:02005C000BB0E7
:02005D000C0C89
:02005E000C682C
:02005F000CC4CF
:020060000D1F72
:020061000D7A16
:020062000DD5BA
:020063000E2F5E
:020064000E8A02
:020065000EE4A7
:020066000F3E4B
:020067000F97F1
:020068000FF196
:02006900004A4B
:02006A0000A3F1
:02006B0000FB98
:02006C0001533E
:02006D0001ABE5
:02006E0002038B
:02006F00025B32
:0200700002B2DA
:02007100030981
:02007200035F2A
:0200730003B6D2
:02007400040C7A
:02007500046223
:0200760004B7CD
:02007700050C76
:02007800056120
:0200790005B6CA
:02007A00060A74
:02007B00065E1F
:02007C0006B2CA
:02007D00070575
:02007E00075821
:02007F0007ABCD
:0200800007FE79
:02008100085025
:0200820008A2D2
:0200830008F380
:0200840009452C
:020085000996DA
:0200860009E689
:020087000A3736
:020088000A87E5
:020089000AD695
:02008A000B2643
:02008B000B75F3
:02008C000BC3A4
:02008D000C1253
:02008E000C6004
:02008F000CADB6
:020090000CFA68
:020091000D4719
:020092000D94CB
:020093000DE07E
:020094000E2C30
:020095000E78E3
:020096000EC397
:020097000F0E4A
:020098000F58FF
:020099000FA3B3
:02009A000FEC69
:02009B0000362D
:02009C00007FE3
:02009D0000C899
:02009E0001104F
:02009F00015806
:0200A000019FBE
:0200A10001E775
:0200A200022D2D
:0200A3000274E5
:0200A40002BA9E
:0200A500030056
:0200A600034510
:0200A700038ACA
:0200A80003CF84
:0200A90004133E
:0200AA000457F9
:0200AB00049AB5
:0200AC0004DD71
:0200AD0005202C
:0200AE000562E9
:0200AF0005A4A6
:0200B00005E564
:0200B100062621
:0200B2000667DF
:0200B30006A79E
:0200B40006E75D
:0200B50007261C
:0200B6000765DC
:0200B70007A49C
:0200B80007E25D
:0200B90008201D
:0200BA00085DDF
:0200BB00089AA1
:0200BC0008D664
:0200BD00091226
:0200BE00094EE9
:0200BF000989AD
:0200C00009C471
:0200C10009FF35
:0200C2000A39F9
:0200C3000A72BF
:0200C4000AAB85
:0200C5000AE44B
:0200C6000B1C11
:0200C7000B54D8
:0200C8000B8BA0
:0200C9000BC268
:0200CA000BF930
:0200CB000C2FF8
:0200CC000C64C2
:0200CD000C9A8B
:0200CE000CCE56
:0200CF000D031F
:0200D0000D37EA
:0200D1000D6AB6
:0200D2000D9D82
:0200D3000DCF4F
:0200D4000E011B
:0200D5000E33E8
:0200D6000E64B6
:0200D7000E9584
:0200D8000EC553
:0200D9000EF522
:0200DA000F24F1
:0200DB000F53C1
:0200DC000F8192
:0200DD000FAF63
:0200DE000FDD34
:0200DF00000A15
:0200E0000036E8
:0200E1000062BB
:0200E200008E8E
:0200E30000B962
:0200E40000E436
:0200E500010E0A
:0200E6000138DF
:0200E7000161B5
:0200E800018A8B
:0200E90001B262
:0200EA0001DA39
:0200EB00020110
:0200EC000228E8
:0200ED00024EC1
:0200EE0002749A
:0200EF00029A73
:0200F00002BF4D
:0200F10002E328
:0200F200030702
:0200F300032ADE
:0200F400034DBA
:0200F500037096
:0200F600039273
:0200F70003B351
:0200F80003D52E
:0200F90003F50D
:0200FA000415EB
:0200FB000435CA
:0200FC000454AA
:0200FD0004728B
:0200FE0004906C
:0200FF0004AE4D
:0201000004CB2E
:0201010004E810
:020102000504F2
:02010300051FD6
:02010400053BB9
:0201050005559E
:02010600056F83
:02010700058968
:0201080005A24E
:0201090005BB34
:02010A0005D31B
:02010B0005EA03
:02010C000601EA
:02010D000618D2
:02010E00062EBB
:02010F000644A4
:0201100006598E
:02011100066D79
:02011200068164
:0201130006954F
:0201140006A83B
:0201150006BA28
:0201160006CC15
:0201170006DE02
:0201180006EFF0
:0201190006FFDF
:02011A00070FCD
:02011B00071FBC
:02011C00072EAC
:02011D00073C9D
:02011E00074A8E
:02011F00075780
:02012000076472
:02012100077164
:02012200077D57
:0201230007884B
:0201240007933F
:02012500079D34
:0201260007A729
:0201270007B01F
:0201280007B915
:0201290007C10C
:02012A0007C903
:02012B0007D0FB
:02012C0007D7F3
:02012D0007DDEC
:02012E0007E3E5
:02012F0007E8DF
:0201300007EDD9
:0201310007F1D4
:0201320007F5CF
:0201330007F8CB
:0201340007FAC8
:0201350007FCC5
:0201360007FEC2
:0201370007FFC0
:0201380007FFBF
:0201390007FFBE
:02013A0007FFBD
:02013B0007FEBD
:02013C0007FCBE
:02013D0007FABF
:02013E0007F8C0
:02013F0007F5C2
:0201400007F1C5
:0201410007EDC8
:0201420007E8CC
:0201430007E3D0
:0201440007DDD5
:0201450007D7DA
:0201460007D0E0
:0201470007C9E6
:0201480007C1ED
:0201490007B9F4
:02014A0007B0FC
:02014B0007A704
:02014C00079D0D
:02014D00079316
:02014E00078820
:02014F00077D2A
:02015000077135
:02015100076441
:0201520007574D
:02015300074A59
:02015400073C66
:02015500072E73
:02015600071F81
:02015700070F90
:0201580006FFA0
:0201590006EFAF
:02015A0006DEBF
:02015B0006CCD0
:02015C0006BAE1
:02015D0006A8F2
:02015E00069504
:02015F00068117
:02016000066D2A
:0201610006593D
:02016200064451
:02016300062E66
:0201640006187B
:02016500060191
:0201660005EAA8
:0201670005D3BE
:0201680005BBD5
:0201690005A2ED
:02016A00058905
:02016B00056F1E
:02016C00055537
:02016D00053B50
:02016E00051F6B
:02016F00050485
:0201700004E8A1
:0201710004CBBD
:0201720004AED9
:020173000490F6
:02017400047213
:02017500045430
:0201760004354E
:0201770004156D
:0201780003F58D
:0201790003D5AC
:02017A0003B3CD
:02017B000392ED
:02017C0003700E
:02017D00034D30
:02017E00032A52
:02017F00030774
:0201800002E398
:0201810002BFBB
:02018200029ADF
:02018300027404
:02018400024E29
:0201850002284E
:02018600020174
:0201870001DA9B
:0201880001B2C2
:02018900018AE9
:02018A00016111
:02018B00013839
:02018C00010E62
:02018D0000E48C
:02018E0000B9B6
:02018F00008EE0
:0201900000620B
:02019100003636
:02019200000A61
:020193000FDD7E
:020194000FAFAB
:020195000F81D8
:020196000F5305
:020197000F2433
:020198000EF562
:020199000EC591
:02019A000E95C0
:02019B000E64F0
:02019C000E3320
:02019D000E0151
:02019E000DCF83
:02019F000D9DB4
:0201A0000D6AE6
:0201A1000D3718
:0201A2000D034B
:0201A3000CCE80
:0201A4000C9AB3
:0201A5000C64E8
:0201A6000C2F1C
:0201A7000BF952
:0201A8000BC288
:0201A9000B8BBE
:0201AA000B54F4
:0201AB000B1C2B
:0201AC000AE463
:0201AD000AAB9B
:0201AE000A72D3
:0201AF000A390B
:0201B00009FF45
:0201B10009C47F
:0201B2000989B9
:0201B300094EF3
:0201B40009122E
:0201B50008D66A
:0201B600089AA5
:0201B700085DE1
:0201B80008201D
:0201B90007E25B
:0201BA0007A498
:0201BB000765D6
:0201BC00072614
:0201BD0006E753
:0201BE0006A792
:0201BF000667D1
:0201C000062611
:0201C10005E552
:0201C20005A492
:0201C3000562D3
:0201C400052014
:0201C50004DD57
:0201C600049A99
:0201C7000457DB
:0201C80004131E
:0201C90003CF62
:0201CA00038AA6
:0201CB000345EA
:0201CC0003002E
:0201CD0002BA74
:0201CE000274B9
:0201CF00022DFF
:0201D00001E745
:0201D100019F8C
:0201D2000158D2
:0201D300011019
:0201D40000C861
:0201D500007FA9
:0201D6000036F1
:0201D7000FEC2B
:0201D8000FA373
:0201D9000F58BD
:0201DA000F0E06
:0201DB000EC351
:0201DC000E789B
:0201DD000E2CE6
:0201DE000DE032
:0201DF000D947D
:0201E0000D47C9
:0201E1000CFA16
:0201E2000CAD62
:0201E3000C60AE
:0201E4000C12FB
:0201E5000BC34A
:0201E6000B7597
:0201E7000B26E5
:0201E8000AD635
:0201E9000A8783
:0201EA000A37D2
:0201EB0009E623
:0201EC00099672
:0201ED000945C2
:0201EE0008F314
:0201EF0008A264
:0201F0000850B5
:0201F10007FE07
:0201F20007AB59
:0201F3000758AB
:0201F4000705FD
:0201F50006B250
:0201F600065EA3
:0201F700060AF6
:0201F80005B64A
:0201F90005619E
:0201FA00050CF2
:0201FB0004B747
:0201FC0004629B
:0201FD00040CF0
:0201FE0003B646
:0201FF00035F9C
:00000001FF
